:020000040000fa
:080000000002040000000000f2
:020000040000fa
:04000800e002000012
:020000040000fa
:04000c00e00200000e
:020000040000fa
:04001000e00200000a
:020000040000fa
:04001400e002000006
:020000040000fa
:04001800e002000002
:020000040000fa
:04001c00e0020000fe
:020000040000fa
:04002000e0020000fa
:020000040000fa
:04002400e0020000f6
:020000040000fa
:04002800e0020000f2
:020000040000fa
:04002c00e0020000ee
:020000040000fa
:04003000e0020000ea
:020000040000fa
:04003400e0020000e6
:020000040000fa
:04003800e0020000e2
:020000040000fa
:04003c00e0020000de
:020000040000fa
:04004000e0020000da
:020000040000fa
:04004400e0020000d6
:020000040000fa
:04004800e0020000d2
:020000040000fa
:04004c00e0020000ce
:020000040000fa
:04005000e0020000ca
:020000040000fa
:04005400e0020000c6
:020000040000fa
:04005800e0020000c2
:020000040000fa
:04005c00e0020000be
:020000040000fa
:04006000e0020000ba
:020000040000fa
:04006400e0020000b6
:020000040000fa
:04006800e0020000b2
:020000040000fa
:04006c00e0020000ae
:020000040000fa
:04007000e0020000aa
:020000040000fa
:04007400e0020000a6
:020000040000fa
:04007800e0020000a2
:020000040000fa
:04007c00e00200009e
:020000040000fa
:04008000e00200009a
:020000040000fa
:04008400e002000096
:020000040000fa
:04008800e002000092
:020000040000fa
:04008c00e00200008e
:020000040000fa
:04009000e00200008a
:020000040000fa
:04009400e002000086
:020000040000fa
:04009800e002000082
:020000040000fa
:04009c00e00200007e
:020000040000fa
:0400a000e00200007a
:020000040000fa
:0400a400e002000076
:020000040000fa
:0400a800e002000072
:020000040000fa
:0400ac00e00200006e
:020000040000fa
:0400b000e00200006a
:020000040000fa
:0400b400e002000066
:020000040000fa
:0400b800e002000062
:020000040000fa
:0400bc00e00200005e
:020000040000fa
:0400c000e00200005a
:020000040000fa
:0400c400e002000056
:020000040000fa
:0400c800e002000052
:020000040000fa
:0400cc00e00200004e
:020000040000fa
:0400d000e00200004a
:020000040000fa
:0400d400e002000046
:020000040000fa
:0400d800e002000042
:020000040000fa
:0400dc00e00200003e
:020000040000fa
:0400e000e00200003a
:020000040000fa
:0400e400e002000036
:020000040000fa
:0400e800e002000032
:020000040000fa
:0400ec00e00200002e
:020000040000fa
:0400f000e00200002a
:020000040000fa
:0400f400e002000026
:020000040000fa
:0400f800e002000022
:020000040000fa
:0400fc00e00200001e
:020000040000fa
:04010000e002000019
:020000040000fa
:04010400e002000015
:020000040000fa
:04010800e002000011
:020000040000fa
:04010c00e00200000d
:020000040000fa
:04011000e002000009
:020000040000fa
:04011400e002000005
:020000040000fa
:04011800e002000001
:020000040000fa
:04011c00e0020000fd
:020000040000fa
:04012000e0020000f9
:020000040000fa
:04012400e0020000f5
:020000040000fa
:04012800e0020000f1
:020000040000fa
:04012c00e0020000ed
:020000040000fa
:04013000e0020000e9
:020000040000fa
:04013400e0020000e5
:020000040000fa
:04013800e0020000e1
:020000040000fa
:04013c00e0020000dd
:020000040000fa
:04014000e0020000d9
:020000040000fa
:04014400e0020000d5
:020000040000fa
:04014800e0020000d1
:020000040000fa
:04014c00e0020000cd
:020000040000fa
:04015000e0020000c9
:020000040000fa
:04015400e0020000c5
:020000040000fa
:04015800e0020000c1
:020000040000fa
:04015c00e0020000bd
:020000040000fa
:04016000e0020000b9
:020000040000fa
:04016400e0020000b5
:020000040000fa
:04016800e0020000b1
:020000040000fa
:04016c00e0020000ad
:020000040000fa
:04017000e0020000a9
:020000040000fa
:04017400e0020000a5
:020000040000fa
:04017800e0020000a1
:020000040000fa
:04017c00e00200009d
:020000040000fa
:040180005625000000
:020000040000fa
:04018400e002000095
:020000040000fa
:04018800e002000091
:020000040000fa
:04018c00e00200008d
:020000040000fa
:04019000e002000089
:020000040000fa
:04019400e002000085
:020000040000fa
:04019800e002000081
:020000040000fa
:04019c00e00200007d
:020000040000fa
:0401a000e002000079
:020000040000fa
:0401a400e002000075
:020000040000fa
:0401a800e002000071
:020000040000fa
:0401ac00e00200006d
:020000040000fa
:0401b000e002000069
:020000040000fa
:0401b400e002000065
:020000040000fa
:0401b800e002000061
:020000040000fa
:0401bc00e00200005d
:020000040000fa
:0401c000e002000059
:020000040000fa
:0401c400e002000055
:020000040000fa
:0401c800e002000051
:020000040000fa
:0401cc00e00200004d
:020000040000fa
:0401d000e002000049
:020000040000fa
:0401d400e002000045
:020000040000fa
:0401d800e002000041
:020000040000fa
:0401dc00e00200003d
:020000040000fa
:0401e000e002000039
:020000040000fa
:0401e400e002000035
:020000040000fa
:0401e800e002000031
:020000040000fa
:0401ec00e00200002d
:020000040000fa
:0401f000e002000029
:020000040000fa
:0401f400e002000025
:020000040000fa
:0401f800e002000021
:020000040000fa
:0401fc00e00200001d
:020000040000fa
:04020800e002000010
:020000040000fa
:04020c00e00200000c
:020000040000fa
:04021000e002000008
:020000040000fa
:04021400e002000004
:020000040000fa
:04021800e002000000
:020000040000fa
:04021c00e0020000fc
:020000040000fa
:04022000e0020000f8
:020000040000fa
:04022400e0020000f4
:020000040000fa
:04022800e0020000f0
:020000040000fa
:04022c00e0020000ec
:020000040000fa
:04023000e0020000e8
:020000040000fa
:04023400e0020000e4
:020000040000fa
:04023800e0020000e0
:020000040000fa
:04023c00e0020000dc
:020000040000fa
:04024000e0020000d8
:020000040000fa
:04024400e0020000d4
:020000040000fa
:04024800e0020000d0
:020000040000fa
:04024c00e0020000cc
:020000040000fa
:04025000e0020000c8
:020000040000fa
:04025400e0020000c4
:020000040000fa
:04025800e0020000c0
:020000040000fa
:04025c00e0020000bc
:020000040000fa
:04026000e0020000b8
:020000040000fa
:04026400e0020000b4
:020000040000fa
:04026800e0020000b0
:020000040000fa
:04026c00e0020000ac
:020000040000fa
:04027000e0020000a8
:020000040000fa
:04027400e0020000a4
:020000040000fa
:04027800e0020000a0
:020000040000fa
:04027c00e00200009c
:020000040000fa
:04028000e002000098
:020000040000fa
:04028400e002000094
:020000040000fa
:04028800e002000090
:020000040000fa
:04028c00e00200008c
:020000040000fa
:04029000e002000088
:020000040000fa
:04029400e002000084
:020000040000fa
:04029800e002000080
:020000040000fa
:04029c00e00200007c
:020000040000fa
:0402a000e002000078
:020000040000fa
:0402a400e002000074
:020000040000fa
:0402a800e002000070
:020000040000fa
:0402ac00e00200006c
:020000040000fa
:0402b000e002000068
:020000040000fa
:0402b400e002000064
:020000040000fa
:0402b800e002000060
:020000040000fa
:0402bc00e00200005c
:020000040000fa
:0402c000e002000058
:020000040000fa
:0402c400e002000054
:020000040000fa
:0402c800e002000050
:020000040000fa
:0402cc00e00200004c
:020000040000fa
:0402d000e002000048
:020000040000fa
:0402d400e002000044
:020000040000fa
:0402d800e002000040
:020000040000fa
:0402dc00e00200003c
:020000040000fa
:0402e000e002000038
:020000040000fa
:0402e400e002000034
:020000040000fa
:0402e800e002000030
:020000040000fa
:0402ec00e00200002c
:020000040000fa
:0402f000e002000028
:020000040000fa
:0402f400e002000024
:020000040000fa
:0402f800e002000020
:020000040000fa
:0402fc00e00200001c
:020000040000fa
:04030000e002000017
:020000040000fa
:04030400e002000013
:020000040000fa
:04030800e00200000f
:020000040000fa
:04030c00e00200000b
:020000040000fa
:04031000e002000007
:020000040000fa
:04031400e002000003
:020000040000fa
:04031800e0020000ff
:020000040000fa
:04031c00e0020000fb
:020000040000fa
:04032000e0020000f7
:020000040000fa
:04032400e0020000f3
:020000040000fa
:04032800e0020000ef
:020000040000fa
:04032c00e0020000eb
:020000040000fa
:04033000e0020000e7
:020000040000fa
:04033400e0020000e3
:020000040000fa
:04033800e0020000df
:020000040000fa
:04033c00e0020000db
:020000040000fa
:04034000e0020000d7
:020000040000fa
:04034400e0020000d3
:020000040000fa
:04034800e0020000cf
:020000040000fa
:04034c00e0020000cb
:020000040000fa
:04035000e0020000c7
:020000040000fa
:04035400e0020000c3
:020000040000fa
:04035800e0020000bf
:020000040000fa
:04035c00e0020000bb
:020000040000fa
:04036000e0020000b7
:020000040000fa
:04036400e0020000b3
:020000040000fa
:04036800e0020000af
:020000040000fa
:04036c00e0020000ab
:020000040000fa
:04037000e0020000a7
:020000040000fa
:04037400e0020000a3
:020000040000fa
:04037800e00200009f
:020000040000fa
:04037c00e00200009b
:020000040000fa
:04038000e002000097
:020000040000fa
:04038400e002000093
:020000040000fa
:04038800e00200008f
:020000040000fa
:04038c00e00200008b
:020000040000fa
:04039000e002000087
:020000040000fa
:04039400e002000083
:020000040000fa
:04039800e00200007f
:020000040000fa
:04039c00e00200007b
:020000040000fa
:0403a000e002000077
:020000040000fa
:0403a400e002000073
:020000040000fa
:0403a800e00200006f
:020000040000fa
:0403ac00e00200006b
:020000040000fa
:0403b000e002000067
:020000040000fa
:0403b400e002000063
:020000040000fa
:0403b800e00200005f
:020000040000fa
:0403bc00e00200005b
:020000040000fa
:0403c000e002000057
:020000040000fa
:0403c400e002000053
:020000040000fa
:0403c800e00200004f
:020000040000fa
:0403cc00e00200004b
:020000040000fa
:0403d000e002000047
:020000040000fa
:0403d400e002000043
:020000040000fa
:0403d800e00200003f
:020000040000fa
:0403dc00e00200003b
:020000040000fa
:0403e000e002000037
:020000040000fa
:0403e400e002000033
:020000040000fa
:0403e800e00200002f
:020000040000fa
:0403ec00e00200002b
:020000040000fa
:0403f000e002000027
:020000040000fa
:0403f400e002000023
:020000040000fa
:0403f800e00200001f
:020000040000fa
:0403fc00e00200001b
:020000040000fa
:100400000fa220000e7f22000e01880000000000d5
:10041000000020000000e000020032000001200087
:10042000200288000c000700a049220001002000e3
:100430000f000700000020000000e0000200320072
:100440000000020000000000881e02000000000002
:100450000040da000000fe00c01020000000e000b4
:1004600002003200002020009001880000000600f9
:10047000a1028800800078000000eb001a0037001d
:10048000e280400054a0b4009101ba00e280400034
:1004900054a0b4009102ba00e280400054a0b4001d
:1004a0000002eb00472bde00f507b200a601880032
:1004b000602ce10008003a000049eb000201e8006e
:1004c000020039003420ec0002f0a0008301e900b2
:1004d000f9ff3e00040037006128e100010032000e
:1004e0000082eb000b00070011c3ba001101ba0033
:1004f0000604e00003003a000200e000e0ff3a00da
:1005000000000600f607b200a6028800820078000c
:10051000f5ff370004d0a300e20f49001c003900aa
:10052000810278003549ba000201e8000200390072
:100530003420ec0002f0a0008301e9000f0032003b
:100540002549ba000201e800020039003420ec001d
:1005500002f0a0008301e900080032000400e0007e
:100560000600320015c9ba000201e8000200390095
:100570003420ec0002f0a0008301e9008180e80053
:1005800054a0b4000300e000e2ff3a0000000600bf
:100590009102ba00055978008301e900f7ff3200a3
:1005a000c82ade00055978008301e900f3ff320014
:1005b0000400e000f1ff320011d9ba00eeff37006d
:1005c0000040da000000fe0003f0a200889fbe0099
:1005d0008a9fbe008c1f7800f3000700fa003300ea
:1005e0006450e1004f0032006420e100520032000c
:1005f00003826c0007003b000905d0000306d00011
:10060000820f54000c065d00020039000200320027
:1006100089017800030678008582550004003d00ba
:100620000003fd008103fd008502ea008b85420086
:10063000840f720002003b0060001000e080180090
:100640006011b8000005eb007a28e1000a003900cb
:1006500006007800c75ddd00f707b20087807500ef
:100660002d003700828171000a0178006105600069
:100670008180d1000080d3008502e900f9ff3b00b2
:10068000060440008784480002003b006004140018
:10069000e0841c000988a300070032008a817100f1
:1006a00082817100610164008904d1000884d30053
:1006b0008b05e800170037000978a30013003a0003
:1006c0000b00e000130034008b05e900080444002f
:1006d00089844c000a4474000978a3000d003a0094
:1006e0000b00e000070034008b05e900080444001b
:1006f00089844c0001003a000b0020000978a30017
:10070000f7ff32000001eb00020037008281710028
:100710000a017800690007000cf0a70001f0a000b2
:10072000b20037006420e10002003a00838f6c00c1
:10073000b20033000801be000200be00ab0037006b
:10074000889fbe008a9fbe008c1f7800960007001d
:100750009d00330003866c006450e1002e003200df
:100760006420e100330032006150e1002f003200cc
:100770006120e1003100320085855500eb07b000b3
:100780000900200008042000050037000804440088
:1007900089844c000a0031000603430087834b0024
:1007a0000001530081815b00f8ff33000203be00ab
:1007b0000800a0000804440089844c00f6ff3900ba
:1007c000c639dd00830173000100320013002000f0
:1007d0008904d1000884d3000998a30005003200e1
:1007e0000800a7000300a0008904d1000884d300fa
:1007f0008b05e8008904d1000884d3000001eb00d8
:100800000281d2002d00070001f0a1000cf0a7002a
:1008100001f0a000750037006420e100770032008d
:100820000801be000200be00f7ff37006120e100b2
:10083000720032006000b800f3ff370000002000b3
:1008400001f82700f0ff37000001be00410007005b
:100850000470a70003f0a10003f8a30013003a00fe
:100860006509b10010003200090035006928e10077
:1008700002003500010028000000050000004000d3
:10088000818048008502e900fcff3a000000060074
:10089000f88f4200050035008100d1000080d300b0
:1008a0008502e800fcff3a00000006008000eb0033
:1008b000000005006011b80097003700810020009b
:1008c000618055000b003d000b00200061fe2f00f1
:1008d0000100e1001d0034008281710061016400ab
:1008e0008904d1000884d3000000e800faff3a0030
:1008f00071002000610064000300700002006000cd
:100900000900320061044400e0844c000988a5001d
:10091000050032008b05e8006808e10002003a009b
:100920008904d1000884d300f20f20000258e100ae
:1009300005003d00c75ddd00f907b2008980750044
:1009400008007800000006000bf827008b007800f4
:1009500000000500c70ade00f107b200f50fb20083
:1009600008003200e1cf4200020032000170a00016
:1009700024000500810f700001003200040805000a
:1009800044000500810f700002003a0014000500c9
:100990008502e9000000400081c04800fcff3b00e8
:1009a0000170a000240005000004be00e9ff07005c
:1009b0000003be000405be000200be00e5ff070004
:1009c000844f7500000006000200be006450e10084
:1009d000050036006420e100020036000968a3002b
:1009e00001003a000800be000160a0004f06780038
:1009f0004f05be004f04be0000000600f0ff2f00b0
:100a0000f1ff2700f9ff3700889fbe008a9fbe00d4
:100a10008c1f7800e4ff0700ebff330003866c00b7
:100a20006450e100240032006420e100270032001d
:100a30006150e100220032006120e100210032001b
:100a40008b854200eb07b1000134b800003ab800d2
:100a50000804420089844a00013ab8000030b80016
:100a60008880400009014a00040033000000400073
:100a700081804800020149008b05e900c909dd00b9
:100a8000830170000100320013002000c814de0052
:100a90004814dd004709de001200b200c808de007d
:100aa0000884700085ff070001f0a1000cf0a7008a
:100ab00001f0a000cdff37006120e100cfff320040
:100ac0000801be000200be00f7ff37006150e100e0
:100ad000fcff3a00c9ff37006022b8000602200080
:100ae0000000d0008180d2000482d2008582d20032
:100af0000000a0000202520083825a00030031006d
:100b00000202420083824a000000a1000603e900bd
:100b1000f3ff3a0000000600889fbe008a9fbe00d7
:100b2000008270000402710004827100260032000d
:100b30000004be000200be006011b8006b09200076
:100b4000950220000182cf000a0039000541b10062
:100b50000082cf00070039000541b1000982cf00b3
:100b6000040039000541b1000882cf0001003900be
:100b70000541b10005425200120032000a003b005c
:100b800082817100610164008100d1000080d30086
:100b90008984d3000884d3008b05e8000442e80070
:100ba000f7ff3a00070037000804440089844c002e
:100bb00000004800818048008b05e9000442e900fc
:100bc000f9ff3a003dff07004f05be004f04be008d
:100bd000000006008001780002003700b15978005b
:100be0000201e9000200e000fcff3a0000000600fc
:100bf0008001780002003700815978000201e90085
:0c0c00000200e000fcff3a0000000600cb
:020000040000fa
:100c0c0012010000000200000000000000080000bb
:100c1c00d80400003f0000000001000001020000a9
:100c2c000001000009020000290000000101000081
:100c3c0000c00000320900000400000000020000a7
:100c4c000300000000000000092100001101000059
:100c5c0000010000221d00000007000005810000bb
:100c6c000340000000010000070500000103000024
:100c7c004000000001000000040300000904000013
:100c8c00340300004d000000690000006300000008
:100c9c00720000006f00000063000000680000009c
:100cac0069000000700000002000000054000000eb
:100cbc006500000063000000680000006e0000008a
:100ccc006f0000006c0000006f0000006700000067
:100cdc007900000020000000490000006e000000b8
:100cec00630000002e0000002e03000053000000e3
:100cfc00690000006d000000700000006c00000036
:100d0c0065000000200000004800000049000000c1
:100d1c0044000000200000004400000065000000ba
:100d2c007600000069000000630000006500000010
:100d3c002000000044000000650000006d00000071
:100d4c006f00000006000000ff09000001a1000078
:100d5c0001190000012900004015000000260000c8
:100d6c00ff000000750800009540000081000000a5
:100d7c00190100002940000091000000c000000093
:100d8c001886000042860000468600007a86000025
:100d9c001000000001000000110000000100000024
:100dac00120000000100000015010000000000000e
:100dbc001600000001000000300a000000000000d6
:100dcc00310a0000000000003208000000000000a2
:100ddc00400000000400000041060000000000007c
:100dec006000000002000000610000000200000032
:100dfc007001000000000000710000000100000004
:100e0c0080000000020000008100000002000000d1
:080e1c0090000000000000003e
:020000040000fa
:100e24000200fa009ec0a9008ac1a8000080eb005d
:100e3400702088000080eb00502088002a24ef00f6
:100e4400220020008000eb00c042200067ff070062
:100e540020002000302188002824ef000644a90047
:100e6400f009200080208800f0092000602088001c
:100e740002c4a8000804a80000a020004800de0066
:100e8400c02088000040eb00004f780007003700c6
:100e94001e80fb00c200dd0000a020000081400095
:100ea4006000b8000089be001e4fe8001e407800b4
:100eb400e74f5000f6ff36001424a8001624ef0074
:100ec40014a4a9001424a900800020005020880044
:100ed400008d20008040eb0001487800608d2000e8
:100ee4008040eb0001487800708d2000904078002d
:100ef400e0c0600001487800808d200090407800b8
:100f0400e0c0600001487800502080006800600064
:100f14000000e000ecff3a0010c0b3001be8b7008b
:100f240010c0b3001ce8b7001d68ef001e68ef0096
:100f34001568ef000040eb00004f78001500370003
:100f44001e80fb0080004000c08020000080400024
:100f54008000eb00010878001e80fb008000400048
:100f640080802000008040008000eb0001087800b1
:100f74001e80fb00b18d20000041eb0082707800e0
:100f84001e80fb00d18d20000041eb0082707800b0
:100f94001e4fe8001e407800e14f5000e8ff360085
:100fa40080a0200060408800d000200050218800ec
:100fb400f08d20001050880000a0200081c0b300f4
:100fc4000148780010a0200041c0b3000148780017
:100fd40010a020009040780000c8b30080c07000ca
:100fe40010a02000014878000268ef002028ef00dc
:100ff4002228ef002468ef000028ef000080fa00a8
:10100400000006000200fa0000408000e10f5000da
:101014000b003a00a1208000000420000080600042
:101024000000e00006003a000080eb005020880039
:101034000c04a8000c84a8002000200000408800b4
:1010440000208000700060000000e0000700320013
:1010540010208000700060000000e00003003200f7
:101064000001200000208800d104070040208000f7
:10107400620060000000e000020032008ec0a9009f
:10108400a300370050208000610060000000e000f1
:101094000a00320060208000610060000000e0006f
:1010a400060032005eff07009ec0a800400020003a
:1010b400004088001000200050208800502080004c
:1010c400700060000000e000050032006020800035
:1010d400700060000000e00001003200a704070077
:1010e4000120800000042000008060000000e00077
:1010f4000300320000042000002088001a070700c3
:1011040050208000640060000000e0001400320001
:1011140060208000640060000000e00004003200f1
:10112400120020008000eb0030072000af0a070007
:10113400400020005020880019c8bf000004e000cf
:101144000300320019c8bf000040e90019e8b700e5
:1011540019c8bf000004e00001003a00a70107001d
:101164005120800000082000008060000000e000a2
:10117400060032006120800000082000008060002a
:101184000000e000010032005f04070050208000ee
:10119400620060000000e0000c003200602080006b
:1011a400620060000000e00008003200120020002d
:1011b4008000eb00f0ff27008c0a07000080eb00a2
:1011c400702088002000200050208800004080000b
:1011d400e30f500002003e008ec0a9004c0037000f
:1011e40060208000680060000000e00047003200da
:1011f4000040eb00004f78003f0037005020800093
:10120400680060000000e0003f0032009020800091
:101214000040780016e8b70016c8bf000080fb0045
:101224004400de000040780017e8b700800020008a
:101234005020880016c8bf00684060000004e00029
:1012440012003a0017c8bf000081fb008080fb0039
:10125400d08d2000008040009040780061c0600084
:101264000004a200e1406000d08d20000000410095
:10127400e1c0600090417800e2cfb30002c1610098
:1012840081407100014878001100370017c8bf0081
:101294000081fb008080fb00b08d200000804000b6
:1012a4009040780061c060000004a200e14060004a
:1012b400b08d200000004100e1c060009041780042
:1012c400e2cfb30002c1610081407100014878009f
:1012d40017c8bf000004e00002003a004004070001
:1012e400040037000001eb0061812000200720008a
:1012f4003e0a07001e4fe8001e407800e34f5000ee
:10130400beff360001003700000000008ec0a900b7
:101314000080fa00000006000400fa00204798004c
:10132400314798003e4090000080fb006800600058
:101334000000e000030032008040eb002e409000eb
:10134400a10107003e4090000080fb0064006000a3
:101354000000e0000300320011c0b3002e409000f2
:1013640099010700a14220002e4090000080fb005c
:1013740000004000008f40001e007800be40900036
:10138400014878000080fa00000006000800fa0016
:101394002047980031479800220798006347980037
:1013a4003e4090000004e000070032002e40900010
:1013b4000080fb0080004000c080200000804000ce
:1013c400100f7800060037002e4090000080fb00cc
:1013d400800040008080200000804000100f7800d2
:1013e4001e0078000000e00002003a000000eb005c
:1013f40037003700ae0090001e00780011009800fe
:101404001e007800ee409000014878001e0078002d
:101414001040900002c4b300824060001e007800b7
:10142400114098001e007800104090008040780021
:101434000134a0001e007800114098001e007800be
:101444009040900000c8b30080c070001e00780077
:10145400114098003e4090000004e0000e0032006d
:10146400c18020002e4090000080fb00000040005e
:1014740080804000c28020002e4090000080fb004d
:101484000000400000004100104078000024a20049
:10149400804878000d003700818020002e409000a5
:1014a4000080fb000000400080804000828020001b
:1014b4002e4090000080fb0000004000000041002e
:1014c400104078000024a200804878001e007800b4
:1014d4000080fa00000006000400fa00204798008b
:1014e400314798002e4090000004e00019003a00b3
:1014f4003040800081c0b300014878003040800053
:10150400f18d20001100980030408000c1c0b3006c
:10151400114098003040800031408000114190001b
:1015240001c8b30081407100114098006040800000
:1015340041c0b300114098006040800061408000c9
:101544001141900001c8b30081407100114098001e
:101554002e0037002e4090000080fb000000400069
:10156400800078003e4090000080fb000080400036
:101574004300dd008000780000a02000008f4000c0
:101584001e00780010409000804078000124a000e4
:101594001e007800114098001e00780090409000d2
:1015a40000c8b30080c070001e007800114098008d
:1015b4002e4090000080fb00000040008000780076
:1015c4003e4090000080fb00008040004300dd00ae
:1015d400e400400000a02000008f40001e007800be
:1015e40010409000804078000124a0001e00780084
:1015f400114098001e0078009040900000c8b3008d
:1016040080c070001e007800114098000080fa002d
:10161400000006000200fa00004f7800a1208000bc
:1016240000022000008060000000e0005100320051
:101634001e80fb0080004000c0802000008040002d
:10164400100278001e80fb0080004000c080200053
:1016540000804000100078001001be00000420004b
:1016640001002000820278000301780080017800e4
:101674000100780083826200000061008000eb00ba
:10168400c000dd00000020000001be006128b80099
:101694000001710081817100028abe001e80fb007e
:1016a40080004000c08020000080400010027800cc
:1016b4001e80fb0080004000c080200000804000ad
:1016c400100078001001be0000042000010020007a
:1016d4000000690081806900008abe00c18020008a
:1016e4001e80fb000000400080804000c28020007b
:1016f4001e80fb0000004000000041001040780004
:101704000024a200804878001e80fb008000400076
:10171400c080200000804000900078001e80fb0004
:1017240000014000c080200000004100100078004b
:10173400104090000044b200904098001e80fb00ce
:1017440080004000c08020000080400090007800ad
:101754001e80fb0000014000c0802000000041000a
:10176400100078001041900000c4b30000406900ec
:10177400904098000080fa00000006000000fa0083
:101784001424ef000c24ef000028ef000080fa007e
:10179400000006000000fa00004080000000e000a5
:1017a40014003a001424ef000c24ef002000200061
:1017b400302188002824ef000644a900f009200005
:1017c40080208800f00920006020880002c4a8005e
:1017d4009ec0a800010037001404a800a0208000c7
:1017e400610060000000e000fbff320010002000f8
:1017f400004088000080fa00000006000000fa00a3
:101804001bc8bf000004a2000004e0003600320040
:1018140010c0b3001be8b7001cc8bf000004a2003e
:101824000004e0003000320010c0b3001ce8b70030
:1018340011c8bf00e24f50000d003a006040800024
:101844008040eb00014878006040800081c4b30010
:101854001140980060408000614080001141900078
:1018640001c8b30081407100114098001e00370088
:1018740011c8bf00e14f50001b003a001868ef0088
:101884002040800081c0b3000148780020408000df
:10189400f18d2000110098002040800041c0b30069
:1018a40011409800204080002140800011419000a8
:1018b40001c8b300814071001140980010c0b3000a
:1018c40018e8b7003040800081c0b30001487800b8
:1018d40030408000f18d20001100980030408000dd
:1018e40001c8b300114098000080fa00000006000f
:1018f4000000fa001d68ef001e68ef0011c8bf0069
:10190400e24f500010003a003040800081c0b30024
:101914000148780030408000718e2000110098004a
:101924003040800081c4b3001140980030408000f2
:10193400314080001141900001c8b3008140710022
:10194400114098001e003700508e20001080fb00cc
:10195400618e20009180fb00c808dd00010070004a
:101964008000780090468000808f5000070031008e
:10197400508e20001080fb00618e20009180fb00bf
:10198400c808dd0001007000904688009a00070036
:1019940060408000718e200011009800604080003b
:1019a40081c4b30011409800604080006140800011
:1019b4001141900001c8b3008140710011409800aa
:1019c4000080fa00000006000400fa002047980096
:1019d4003147980000a02000000f78002e409000ae
:1019e4000080fb0000004000800078003e40900032
:1019f4000080fb00008040004300dd001e0f40001b
:101a04009e0078001100780000f0a10080087800a2
:101a14003e4090000004e00007003a002e40900091
:101a24000080fb0080004000808020000080400097
:101a34001e087800060037002e4090000080fb004e
:101a440080004000c0802000008040001e08780014
:101a54009e0078001100780000e0a1008008780062
:101a64001e017800e40041001100780000e0a000ad
:101a7400800878000080fa00000006000000fa00e8
:101a840014a4a900814680000008200000806000a2
:101a94000000e00029003a00608d200090407800aa
:101aa40000c8b30000c060000004e0000a00320077
:101ab40020c0b30011e8b7001ec8bf000004a20094
:101ac4000004e0000100320089ff07001c68ef00f9
:101ad4001b68ef00460037003040800081c0b3002f
:101ae4000148780030408000f18d200011009800fa
:101af40030408000c1c0b3001140980030408000e5
:101b0400314080001141900001c8b3008140710050
:101b1400114098006040800041c0b300114098001b
:101b240060408000614080001141900001c8b30012
:101b340081407100114098002d003700f08d200085
:101b44009040780000c8b30000c060000004e000ca
:101b54000f00320010c0b30011e8b7001dc8bf0069
:101b64000004a2000004e0000100320060ff07004e
:101b74001c68ef001b68ef001ac8bf000004a20035
:101b84000004e0001a0032001cff070018003700b0
:101b940020c0b30011e8b7003040800081c0b3001a
:101ba4000148780030408000f18d20001100980039
:101bb4003040800041c0b3001140980030408000a4
:101bc400314080001141900001c8b3008140710090
:101bd400114098001c68ef001b68ef001ac8bf0092
:101be4000004a2000004e0000100320003ff07002b
:101bf4000080fa00000006000200fa0080c0b30072
:101c0400004f780090468000e70f50000d003e0022
:101c140090468000004f780010c8bf000004e00028
:101c240003003a0010c0b30010e8b7000500370005
:101c340010c8bf00e14f500002003a0020c0b300ba
:101c440010e8b700914680001e80fb000080500021
:101c540090468800604080001e487800708e200006
:101c64009040880080468000610060000000e00031
:101c740017003a0009003700914080007046800048
:101c840010417800824878008100e8009140880083
:101c94000000e800704688001e4fe9001e407800ee
:101ca4000004e000f4ff3a000c003700914080008b
:101cb4007046800010417800824878008100e80076
:101cc400914088000000e800704688001e4fe9003b
:101cd4001e4078000004e000f4ff3a000080fa009f
:101ce400000006000200fa0020408000104f780037
:101cf4009e80fb00708d20001080fb00828d2000f0
:101d04001281fb004811dd0002007000808f50003a
:101d140007003600708d20001080fb00818d2000ac
:101d24009180fb00c808dd0001007000004f7800be
:101d3400708d20001080fb00818d20009180fb00bd
:101d4400c808dd0001007000800078001e80fb00e0
:101d540000805000f10f200001016000718d20000f
:101d640091417800e0c1610002c1710082487800ad
:101d7400c800de00808d20001041780060416100c1
:101d840081407100014878000040eb001047980042
:101d94001c003700408d20001080fb00518d200076
:101da4009180fb00c808dd00010070009e40900097
:101db4008180fb00728e2000e2c078000148780028
:101dc4000000e800f10f200001016000418d2000b7
:101dd40091417800e0c1610002c17100824878003d
:101de400c800de00508d2000104178006041610081
:101df40081407100014878001e4090000040e800d6
:101e0400104798001e4090009e4f5000e1ff39009b
:101e1400708d20001080fb00818d20009180fb00dc
:101e2400c808dd00010070000000e000200032005e
:101e34003040800081c0b300014878003040800009
:101e4400718e2000110098002040800090007800de
:101e540000002400008060000000e0000a003a0056
:101e64003040800081c4b3001140980030408000ad
:101e7400314080001141900001c8b30081407100dd
:101e840011409800310037003040800081c0b30019
:101e94001140980030408000314080001141900092
:101ea40001c8b30081407100114098002700370039
:101eb4003040800081c0b300014878003040800089
:101ec400f18d2000110098003040800041c0b30023
:101ed4001140980030408000314080001141900052
:101ee40001c8b3008140710011409800908d20001a
:101ef4001080fb00a18d20009180fb00c808dd004c
:101f0400010070000000e00007003200908d200006
:101f14001080fb00a18d20009180fb00c808dd002b
:101f24000100700000000100618d20001140780064
:101f34000070a100804878001ac8bf000004a20005
:101f44000004e000010032002cfe07000080fa00cb
:101f5400000006000200fa00804680000070a00025
:101f640080468800220020008000eb00c042200050
:101f74001efb0700020220008000eb0000a02000ee
:101f84001afb07001424a8000040eb00004f78005f
:101f9400090037001e80fb00b18d20000041eb00da
:101fa400827078001e80fb00d18d20000041eb0080
:101fb400827078001e4fe8001e407800e14f500008
:101fc400f4ff3600120020008000eb003080200077
:101fd40006fb07001424a90080a0200060408800ac
:101fe40000a020002040880020408000304088006d
:101ff400108e20001040780002e8b70002c8bf002d
:102004000004e00003003a000001200000408800c2
:10201400060037001200200021802000100020005c
:10202400f206070000022000004088000080fa0049
:10203400000006000000fa00f08d200090407800b7
:1020440000c8b30080cf500047003a00008d200044
:1020540001ccb30001487800208e200010407800a5
:102064000080fb00e20f500009003200e30f500033
:1020740023003200e10f500037003a00606028006e
:102084007046880020012000904688003600370002
:10209400108e2000104078000004e00014003a0084
:1020a400108e2000104078000080fb0000004000eb
:1020b40080007800606c28000080400010007800e8
:1020c40070468800704680000080e80090407800e8
:1020d400208d200001487800704680006300400095
:1020e40090407800308d2000014878001e003700b1
:1020f400008d20008040eb00014878001a00370072
:10210400108e200010407800e24f50000e003e0078
:10211400108e2000104078000080fb00000040007a
:1021240080007800806c2800008040001000780057
:102134007046880070468000104078000080fb00e4
:102144009046880008003700008d20008040eb0096
:102154000148780004003700008d20008040eb0027
:1021640001487800000000000080fa00000006002a
:102174000200fa00708e20008040eb0001487800d5
:10218400808e20008040eb0001487800f08d200014
:10219400904078007fc060000080fb00e10f500099
:1021a40017003200e20f5000190032000000e00076
:1021b40046003a00804680000070a00080468800f7
:1021c400708e200010407800804078000104a00048
:1021d400708e20000148780014c8bf000004e0009d
:1021e40035003200708e2000104078008040780066
:1021f4000114a000708e20000148780033003700dd
:10220400804680000070a000804688002f003700c0
:10221400804680000070a00080468800308e200038
:102224009040780000c8b30000c060000004e000e3
:1022340009003a00308e2000904078006fc06000a2
:102244000080fb008000400080802000008040006f
:10225400100f780008003700308e2000904078007e
:102264006fc060000080fb0080004000c080200040
:1022740000804000100f78001e0078009000780065
:1022840000002800008060000000e0000c00320024
:102294001e0078009000780000402000008060005c
:1022a4000000e00008003200708e200011c0b3006e
:1022b40001487800050037000000000003003700e3
:1022c400000000000100370000000000814680008b
:1022d40000082000008060000000e00008003200d8
:1022e400708e200070468800804680000000a000a8
:1022f40080468800208d200021c0b300014878006a
:102304000080fa00000006000000fa00502180005e
:10231400620060000000e0001400320020408000f1
:102324009040900000c8b30080cf50000e003a00e7
:10233400604080009040900040c8b30080cf5000bf
:1023440009003a0020408000c1c0b3001140980049
:1023540020408000214080001141900001c8b3005a
:1023640081407100114098002a24a900000820002f
:10237400502088000080fa00000006000000fa00e7
:102384000284a800000120005020880010c0b3007f
:1023940015e8b7002468ef000001eb008000eb00b3
:1023a40050072000110607000080fa000000060014
:1023b4000000fa001568ef000001eb008000eb005c
:1023c40040072000090607000284a900000120003c
:1023d400002088002468ef000080fa000000060056
:1023e4000000fa00d0c2b30019e8b70016c8bf0055
:1023f4008080fb00b0ff2f00008060000000e00040
:1024040021003a0016c8bf000080fb004200de0035
:10241400004078000080fb00c200dd0000a0200026
:102424000080400020408800204080003040880028
:102434006080200061802000914078000124a20087
:1024440001487800204080009000780000c02300fc
:102454008080600000402300808f500008003a0014
:10246400204080001000900082002000800078004e
:10247400f08d2000d6f907000c0007000900370092
:10248400420007000700370016c8bf008080fb0029
:10249400b0ff2f0000806000e80f500001003a00f8
:1024a400580007000080fa00000006000000fa004f
:1024b4001068ef001a68ef001d68ef001e68ef0057
:1024c4001868ef001168ef006040800061408000f0
:1024d400914090000174a10011409800c080200038
:1024e400c1802000914078000124a20001487800b6
:1024f4006040800061408000914090000174a10020
:1025040011409800c0802000c180200091407800d4
:102514000124a2000148780030408000314080004e
:10252400914090000174a10011409800008d20009a
:102534008040eb00014878000000eb0090468800e2
:10254400608d20008040eb0001487800708d2000f1
:1025540090407800e0c0600001487800808d200041
:1025640090407800e0c060000148780088000700cf
:102574000001eb008000eb00300020009b05070009
:102584003efd07000080fa00000006000000fa008b
:1025940011c8bf00e24f500002003a00d1fd07000d
:1025a400160037001168ef0018c8bf000004a2002d
:1025b4000004e000100032003040800081c0b3000d
:1025c4000148780030408000f18d2000110098000f
:1025d40030408000c1c0b3001140980030408000fa
:1025e400314080001141900001c8b3008140710066
:1025f40011409800010037001868ef000080fa00cd
:10260400000006000200fa0060408000100078001c
:102614004e00de0061406000004f7800c080200062
:10262400c1802000914078000124a2000148780074
:1026340000408000e80f50000e003a00108e200089
:10264400104078008080fb00f007200000806000cc
:10265400b0208800b02080000000e00003003200b9
:1026640000012000004088000200370040002000e4
:102674000040880011c8bf00e14f500028003a0014
:1026840060408000718e2000110098005afd070000
:1026940010c8bf00e24f50000a003a0060408000ba
:1026a40041c0b30011409800604080006140800048
:1026b4001141900001c8b30081407100114098009d
:1026c400310037001e4078000004e0000a003a00a0
:1026d4006040800081c4b3001140980060408000d5
:1026e400614080001141900001c8b3008140710035
:1026f40011409800240037006040800081c0b3007e
:1027040011409800604080006140800011419000b9
:1027140001c8b30081407100114098001a003700cd
:10272400608d20009040780000c8b30000c06000b5
:102734000004e00013003200908d20001080fb00a4
:10274400a18d20009180fb00c808dd00010070000d
:102754000000e00007003200908d20001080fb0094
:10276400a18d20009180fb00c808dd0001007000ed
:1027740000000100618d2000114078000070a1006c
:10278400804878001168ef000080fa00000006001d
:102794000000fa00f08d2000104078000046b200de
:1027a4000004e00051003a00008e20001040780040
:1027b4000080fb00cf80de00b20020000300200078
:1027c400820f5000838f58004a003e0000600100d1
:1027d400210037002200370048003700200037006e
:1027e40046003700060037000b0037003a00370078
:1027f4000d0037000a0037001b0037002a0037009d
:10280400804680000070a000804688008000200080
:10281400004088003a00370006fe07003800370001
:10282400ccfd070036003700208020007046880069
:10283400804680000000a00080468800208d200093
:1028440011c0b30001487800804680000070a000e9
:10285400804688002a00370045fe0700280037001c
:102864002900070026003700308e20001040780031
:102874008080fb003080200000804000704688008b
:10288400804680000000a00080468800208d200043
:1028940011c0b30001487800804680000070a00099
:1028a4008046880016003700804680000070a00033
:1028b40080468800308e2000104078000081fb00a4
:1028c400108e2000904078003080200000004100ed
:1028d400014878000a0037000001eb008000eb009b
:1028e40020002000c104070005003700000000009c
:1028f4000300370000000000010037000000000062
:102904000080fa00000006000600fa00108e200085
:1029140010407800e14f500010003a00f08d200084
:10292400104078007f4060000004e0000b003a0093
:10293400804680000070a00080468800008e200041
:1029440010407800e34f500003003a0010c0b30079
:1029540014e8b700010037001468ef00108e20005f
:10296400104078000004e000fd003a00f08d2000e3
:10297400104078007f406000e24f5000f8003a00b9
:10298400308e2000104078006f4060000004e000aa
:10299400f3003200308e2000904078006fc0600059
:1029a4000080fb00e10f5000ed003c00014080007e
:1029b40000022000808f5000e9003a008046800029
:1029c4000070a00080468800308e2000904078007f
:1029d40000c8b30000c060000004e00011003a0029
:1029e400308e2000104178006f4061000080fb00b1
:1029f40080004000808020000080400010007800ab
:102a040010079800308e2000904078006fc060005e
:102a14000080fb00d18d2000614078004047980081
:102a240010003700308e2000104178006f406100a4
:102a34000080fb0080004000c08020000080400037
:102a44001000780010079800308e20009040780025
:102a54006fc060000080fb00b18d200061407800f1
:102a6400404798004e409000614060000004e00040
:102a740007003a000e80e8008e80e80011417800db
:102a8400b1cfb300814061000148780005003700f0
:102a94000e80e8008e80e800914078000124a000b8
:102aa40001487800308e20009040780000c8b300c0
:102ab40000c060000004e0000a003a00308e2000ec
:102ac400104178006f4061000080fb009e00900080
:102ad40000014000808020000000410001087800cf
:102ae40009003700308e2000904078006fc06000ed
:102af4000080fb009e00900000014000c080200088
:102b04000000410001087800008e20001040780089
:102b1400e34f50002b003a001e0090009000780014
:102b240000002800008060000000e000190032006e
:102b3400308e20009040780000c8b30000c06000d0
:102b44000004e0000a003a00308e200010417800b2
:102b54006f4061008080fb00d08d200080804000a9
:102b6400114078000010a000804878000900370068
:102b7400308e2000904078006fc060008080fb00a1
:102b8400b08d200080804000114078000010a0002b
:102b9400804878001e0090009e00900091409000b4
:102ba4000124a000114098001e0090009e00900097
:102bb4001141900001c8b300814071001140980098
:102bc400670037000e80e8008e80e80091407800ae
:102bd4000124a200014878001e00900090007800b3
:102be40000002800008060000000e00011003200b6
:102bf4001e0090009e009000914090000174a1007e
:102c0400114098001e0090009e0090001141900019
:102c140001c4b30081407100114098001e0090006f
:102c2400220020008000780050002000ef030700fd
:102c3400060037001e0090009e0090001141900095
:102c440001c4b30081407100114098000e80e80077
:102c54008e80e800914078000124a20001487800a9
:102c64004e409000624060000004e00006003a001c
:102c74001e00900090007800000028000080600092
:102c84000000e00024003200308e200090407800e4
:102c940000c8b30000c060000004e0000a003a006d
:102ca400308e2000104178006f4061008080fb006e
:102cb400d08d200080804000114078000010a100d9
:102cc4008048780009003700308e2000904078005a
:102cd4006fc060008080fb00b08d200080804000c9
:102ce400114078000010a100804878001e00900078
:102cf4009e00900091409000b143b20011409800b2
:102d04001e00900022002000800078005000200067
:102d1400b6030700050037001e0090009e009000d7
:102d240091409000b143b20011409800a1422000ac
:102d3400308e2000104178006f4061000080fb005d
:102d440000004000008f40001e0078009040780092
:102d5400d0cfb30080c060001e0078000148780026
:102d64000080fa00000006000000fa000041800024
:102d74001141800061004000e0804800004188006b
:102d84001141880015c8bf000004a2000004e0003f
:102d94000800320024c8bf000040e80024e8b7005f
:102da40024c8bf000004e00002003a0000c0eb00a9
:102db40024e8b7000080fa00000006000400fa00ce
:102dc4000241800013418000028fbe000041800058
:102dd400114180001e01be00800f5100818f5900f7
:102de400f7ff3a001e00be000080fa000000060053
:102df4000000fa002828ef00d1c1b30010c0b300ce
:102e040045f9070003c4b300e28820008040eb00ca
:102e140010c0b3005df90700304188002421ef00a1
:102e240020098000200980005e22ef00f01280005b
:102e34000040a0000050a000f01288005622ef00cd
:102e44005fe2a800f026210031c823006041880019
:102e5400714188000080fa00000006000000fa00ba
:102e6400590007000004e0000700320008000700d2
:102e740003c4b300e28820008040eb0010c0b3001c
:102e840042f90700304188000080fa000000060083
:102e94000000fa00404180000000e000060032001b
:102ea400404180009000780000002800008060000d
:102eb4000000e00007003a002a28ef0003c4b30032
:102ec400e284200011c0b30010c0b3002ff9070042
:102ed400404188000080fa00000006000200fa0069
:102ee400004f780050418000e18420001e417800aa
:102ef400827078000000e800504188000080fa00e9
:102f0400000006000200fa00004f78001e4078001e
:102f1400f2ff07000080fa00000006000400fa0037
:102f24001007980080c0b300004f780008003700f5
:102f34001e00fb009e0090000008de0000407800a8
:102f4400e6ff07001e40780068405000004f7800fc
:102f54001e4078000004e000f5ff3d000080fa0008
:102f6400000006000600fa001007980021079800e8
:102f740080c1b300004f78000e0037001e01fb0033
:102f84001e009000ae009000820178008301e900e9
:102f9400030033008100d1000080d300fbff370021
:102fa40000407800cdff07001e40780068405000c4
:102fb400004f78001e4078000004e000efff3d0061
:102fc4000080fa00000006000400fa00889fbe009a
:102fd400304180000000e0000600320030418000f3
:102fe4009000780000002800008060000000e000ed
:102ff40010013a002a28ef00020420008000eb00b0
:10300400e0842000f9f607000000eb00000f7800d0
:1030140000013700e08820001e0040009040780046
:10302400214798001e0fe8002e4090000004e000a5
:10303400fd003200206e2800904078002e40900061
:1030440080cf500016003a002e409000adff0700dc
:1030540035040700b1ff07000000eb00afff0700d5
:103064001042800021428000beff0700b0128000a1
:103074008000eb000ef607000002be0060418000f5
:10308400714180000001be000400be005df607002f
:10309400ecf5070000007800a0ff0700dd00370012
:1030a400e0702800904078002e40900080cf5000bf
:1030b40003003a002e40900092ff0700d50037002d
:1030c400206f2800904078002e40900080cf500060
:1030d40012003a002e4090008aff07001042800040
:1030e400214280009fff0700b01280008000eb00a7
:1030f400eff507000002be006041800071418000ce
:103104000001be000400be003ef60700cdf5070036
:103114000000780081ff0700be003700e06e280041
:10312400904078002e40900080cf500021003a005b
:10313400e08820001e004000104078000080fb0062
:10314400c800dd00e08820001e0040001040780028
:103154000080fb004000dd0081007000e08820005a
:103164001e004000104078000080fb004800dd0095
:1031740081007000e08820001e00400010407800ac
:103184000080fb0001007000cf80de001042880048
:10319400214288001e0fe8001e0fe8001e0fe80001
:1031a4001e0fe8005622ef002e40900055ff070046
:1031b4009800370020702800904078002e4090003e
:1031c40080cf500008003a00e08820001e00400034
:1031d400104078001e0fe800800507002e40900084
:1031e40048ff07008b003700e06f2800904078000c
:1031f4002e40900080cf50000d003a007e0507005d
:103204000004e000030032000040eb0073050700f7
:1032140002003700a0c0b300700507002e409000e4
:1032240038ff07007405070036ff070079003700f0
:10323400606f2800904078002e40900080cf5000ae
:103244001c003a00e08820001e0040001040780076
:103254000080fb00c800dd001e00e800e2882000ba
:10326400624078000080fb00010070008000eb00e9
:103274008ff5070002002000433b2400e1f507001e
:103284000004be00f0ff2f008000eb0088f507006b
:103294000001be000800be0028f507001e0fe8006c
:1032a4001e0fe800890507002e40900015ff070057
:1032b40058003700a06f2800904078002e409000fe
:1032c40080cf50001c003a00e08820001e0040001f
:1032d400104078000080fb00c800dd001e00e800fc
:1032e400e2882000624078000080fb00010070004a
:1032f4008000eb006ef5070002002000433b240031
:10330400c0f507000004be00f0ff2f008000eb00b2
:1033140067f507000001be000800be0007f50700be
:103324001e0fe8001e0fe800770507002e409000ee
:10333400f4fe070037003700207028009040780022
:103344002e40900080cf500008003a00e088200012
:103354001e004000104078001e0fe8001f05070003
:103364002e409000e7fe07002a003700e06c28009a
:10337400904078002e40900080cf500011003a0019
:10338400e08820001e004000104078000004e000a7
:1033940003003200c60207001e0fe80006003700d3
:1033a400e08820001e004000104078000080fb00f0
:1033b4001e0fe800e10207002e409000d1fe070036
:1033c40014003700a06d2800904078002e40900033
:1033d40080cf50000e003a00010c8000b0ff2f0097
:1033e40000806000000c8800200c80000020a200f7
:1033f400200c88002e409000c2fe0700200c8000a4
:103404000040780064406000befe07000100370001
:10341400d9020700f00320009e007800808f50003e
:10342400fcfe3600010037000000000010c0b300ad
:10343400010037000040eb004f04be000080fa009a
:10344400000006000000fa00a600070014c8bf0030
:103454000004e0000100320015c8bf000040fe0077
:103464005120800000022000008060000000e00085
:1034740002003a0010c0b30041000700d300070067
:1034840010c0b3000080fa00000006000000fa003b
:1034940014c8bf000004e0003600320015c8bf00a5
:1034a4000004e0003300320040208000620060002d
:1034b4000000e000010032000824a90075000700a4
:1034c400000420000020880000000000012080008b
:1034d40000042000008060000000e000fbff3200d8
:1034e400000420000020880000000000012080006b
:1034f40000042000008060000000e000fbff3200b8
:10350400000420000020880000000000012080004a
:1035140000042000008060000000e000fbff320097
:103524001444a800000420000020880000000000cb
:103534000120800000042000008060000000e00002
:10354400fbff32000004200000208800000000007f
:103554000120800000042000008060000000e000e2
:10356400fbff32001444a9005700070010c0b30049
:10357400010037000040eb000080fa000000060064
:103584000400fa0020479800402080006100600099
:103594000000e0000b003200402080006200600068
:1035a4000000e00007003a0024c8bf00e34f5000c9
:1035b40004003600202080004300de0061406000eb
:1035c400320037002e4090000004e0001d0032005d
:1035d4000824a9000804a8002e0007000040eb00fe
:1035e400004f780009003700000420000020880004
:1035f4000000000001208000000420000080600022
:103604000000e000fbff32001e4fe8001e4078007f
:10361400e44f5000f4ff36000040eb0010479800e0
:1036240020208000680060000000e00002003200fa
:1036340010c0b30010479800230007001e409000fc
:103644001200370040208000610060000000e000ac
:1036540002003a0000c0eb000c003700402080005c
:10366400620060000000e00002003a00e0cfb30016
:103674000600370024c8bf00e34f500002003e009c
:10368400d0cfb30001003700c0cfb3000080fa00f0
:10369400000006000000fa003868ef001000fc008b
:1036a400f104800000042000008060000000e000bd
:1036b4000200320010c0b30038e8b7009ec0a90071
:1036c4000080fa00000006000000fa0038c8bf00bd
:1036d4000004e000010032009ec0a8000080fa004f
:1036e400000006000400fa001e00fc001102800025
:1036f400000e2000008060008041880010028000dd
:103704000050a0000060a0000070a000100288001b
:1037140040092000100798000000eb00000f78001b
:103724000e0037001e009000900078001e00780004
:1037340000014000008f20000000410001087800d3
:103744001e0090008000eb00010878001e0090002d
:103754000080e800100798001e0fe8001e007800a3
:10376400e70f5000efff3600602080009041880092
:103774000c24ef0010208000a04188000224ef00f8
:10378400700680004800de00674060000080fb0097
:10379400b0418800000120000020880000022000c1
:1037a400502088008ec0a9000284a8007006800002
:1037b4000080a1000090a10000a0a0007006880075
:1037c4009ec0a8000080fa00000006000400fa0071
:1037d40040092000100798000000eb00000f78005b
:1037e4000b0037001e00780080004000008f20008e
:1037f40000804000900078001e00900001087800ce
:103804001e0090000080e800100798001e0fe800da
:103814001e007800e70f5000f2ff36009041800050
:1038240060208800a041800010208800b041800002
:1038340000407800674060000080fb006700600083
:103844004800dd0072068000f18f2f0081006100c6
:10385400010070007006880011028000f0f12f0052
:1038640080806000804180000100700080418800f9
:1038740080418000100288000080fa0000000600e9
:103884000000fa00910c8000f0df2f00008060003f
:10389400900c88000080fa00000006000000fa0086
:1038a400510c80000020200001007000500c8800a2
:1038b4005000200053040700710c80000010200009
:1038c40001007000700c8800510c8000f0ef2f0094
:1038d40000806000500c880050002000490407005c
:1038e400710c8000f0df2f0000806000700c8800f5
:1038f400510c8000f0df2f0000806000500c880025
:10390400500020003f040700710c8000f0ef2f00ee
:1039140000806000700c8800510c8000f0ef2f00d4
:1039240000806000500c880050002000350407001f
:103934000080fa00000006000000fa00710c80000c
:10394400f0ef2f0000806000700c8800510c8000a4
:10395400f0ef2f0000806000500c88005000200021
:1039640028040700710c8000f0df2f000080600045
:10397400700c8800510c8000f0df2f000080600084
:10398400500c8800500020001e040700710c8000b9
:103994000010200001007000700c8800510c8000a1
:1039a400f0ef2f0000806000500c880050002000d1
:1039b40014040700510c8000002020000100700056
:1039c400500c88000080fa00000006000600fa008f
:1039d4004047980080c0b300004f78000e003700c5
:1039e4004e4090000004e00003003d0010c0b3000e
:1039f40010479800020037000040eb001047980081
:103a04001e4090000c0007004e4090000040400013
:103a1400404798001e4fe9001e4078000004e00073
:103a2400efff3a004b000700204798002e4090001b
:103a34000080fa00000006000200fa00004f78003f
:103a44001e4078000004e00009003a00710c800078
:103a5400f0df2f0000806000700c8800510c8000a3
:103a6400f0df2f0000806000500c88000400370055
:103a7400510c80000020200001007000500c8800d0
:103a840010002000df030700710c800000102000ec
:103a940001007000700c8800510c8000f0ef2f00c2
:103aa40000806000500c880060002000d5030700ef
:103ab400710c8000f0ef2f0000806000700c880013
:103ac400510c8000f0ef2f0000806000500c880043
:103ad40060002000cb0307000080fa00000006000d
:103ae4000400fa002047980080c0b30010479800f3
:103af40010003700170007000004e0000500320042
:103b04001e40780000404000004f78001e04a000d2
:103b1400050037001e40780000404000004f780048
:103b2400e0cfb3001e4f60001e4090000040e9004b
:103b3400104798001e4090000004e000edff3a009a
:103b44002e409000bcff07001e4078000080fa0061
:103b5400000006000200fa00510c80000020200042
:103b640001007000500c8800710c800000102000cf
:103b740001007000700c8800510c8000f0ef2f00e1
:103b840000806000500c8800600020009d03070046
:103b9400610c800000202000008060000000e00034
:103ba4000300320010c0b300004f78000200370059
:103bb4000040eb00004f7800710c8000f0ef2f0004
:103bc40000806000700c8800510c8000f0ef2f0022
:103bd40000806000500c880060002000890307000a
:103be4001e4078000080fa00000006000600fa007b
:103bf400000f780011079800220798001e00780033
:103c040021072000810f50002500320021072000e9
:103c1400810f50000a003c00e20f500022003200e5
:103c2400e20f500003003c00e10f50001800320086
:103c34001e003700e30f5000170032001b0037004e
:103c440041072000810f50000d0032004107200081
:103c5400810f50000400350051072000810f5000ef
:103c64000300320011003700470207000f0037003d
:103c74004502070010002000810307000b003700f5
:103c840041020700200020007d03070007003700e1
:103c940057fc0700050037005c01070003003700ec
:103ca40000000000010037000000000010c0b30055
:103cb4000080fa00000006000400fa000000eb0097
:103cc400000f78000c0037000000eb00100798008c
:103cd40004003700000000001e0090000000e8000f
:103ce400100798009e009000f0522700808f50002b
:103cf400f8ff36001e0fe8001e007800fd0f50008c
:103d0400f1ff36000080fa00000006000000fa000f
:103d1400000880000080a0000090a10000a0a10085
:103d2400000888000001a800100880000060a100bd
:103d34000070a10010088800100880000080a10015
:103d44000090a10000a0a1001008880002a1a80012
:103d540000000000010880000002200000806000d4
:103d64000000e000fbff3200010c8000b0ff2f00d8
:103d740000806000000c8800210c8000b0ff2f0040
:103d840000806000200c8800010c8000b0ff2f0030
:103d940000806000000c8800200c80000020a0003f
:103da400200c8800010c8000b0ff2f000080600010
:103db400000c8800210c8000b0ff2f000080600000
:103dc400200c8800070307001a0007009002070070
:103dd4004502070000000000000000000000000091
:103de4000000000000000000000000009200070036
:103df400da0107000000eb002103070008f40700c4
:103e040064f6070000408000ff0f500001003e00f0
:103e14000700370040208000620060000000e000de
:103e240001003200020037000cfc0700feff3700df
:103e3400f4ff37000000fa0002022000a11820005d
:103e4400e0182000020007000080fa0000000600cd
:103e54000600fa00000f7800110798002207980066
:103e64001e009000900078002e0090000080ea0070
:103e7400808060001e009000010878001e00780019
:103e8400900078002e0090000080ea00808060009e
:103e94001e007800010878009e007800f141880037
:103ea400ae009000014288000080fa000000060085
:103eb4000c00fa00803e200001002000200798003a
:103ec400310798002e019000be019000006a28007e
:103ed40011002000fff207004007980051079800e6
:103ee4006000b800008fbe000c003700f041800075
:103ef400f1418000110178000142800081006900d5
:103f0400010878002e009000be0207001200200075
:103f1400030020001e0f41005e9749004e009000f0
:103f2400de0090001e01be00800f5100818f5900f9
:103f3400eeff39000080fa00000006000400fa00d9
:103f4400100798000000eb00000f78000400370011
:103f5400d7ff0700401f2000be0207001e0fe80025
:103f64001e0090009e007800808f5000f8ff3900fa
:103f74000080fa00000006000000fa00ccff0700f1
:103f8400cbff07000080fa00000006000400fa00de
:103f9400100798000000eb00000f780004003700c1
:103fa400f5ff0700401f2000aa0207001e0fe800cb
:103fb4001e0090009e007800808f5000f8ff3900aa
:103fc4000080fa00000006000400fa002047980070
:103fd40010c0b300104798000040eb00004f780079
:103fe400100037001e4090008080fb001e80fb0004
:103ff4008008dd002e4090000080fb0000806000ff
:104004000000e00004003200a9ff0700401f200068
:104014009002070002003700401f20008d020700b5
:104024001e4fe8001e407800e74f5000edff3600b9
:104034000080fa00000006000000fa0010fe0700ed
:10404400710c80000010200001007000700c8800ca
:10405400510c8000f0ef2f0000806000500c8800ad
:104064003000200067020700710c8000f0df2f0091
:1040740000806000700c8800510c8000f0df2f007d
:1040840000806000500c8800a00520007102070029
:10409400510c80000020200001007000500c8800aa
:1040a400200020006b020700510c8000002020003b
:1040b40001007000500c8800710c8000001020007a
:1040c40001007000700c8800510c8000f0ef2f008c
:1040d40000806000500c8800710c8000f0ef2f000d
:1040e40000806000700c8800510c8000f0ef2f00fd
:1040f40000806000500c8800e00120005502070099
:10410400710c80000010200001007000700c880009
:10411400510c8000f0ef2f0000806000500c8800ec
:104124000080fa00000006000000fa0070c0b3002e
:10413400190007000080fa00000006000000fa00e1
:1041440080c0b300140007000080fa0000000600dd
:104154000000fa0060c0b3000f0007000080fa00fe
:10416400000006000200fa00000f78001e0078002c
:104174008000eb00cef1070002002000832424001d
:104184006ef1070032332900833824000df1070053
:104194000080fa00000006000600fa00404798007c
:1041a400befd070040cbb30008fe07004e40900060
:1041b40006fe0700b9fd070040cbb30003fe07006d
:1041c400004f78001e40780045fe07001047980015
:1041d4000040eb0042fe0700204798000040eb003f
:1041e4003ffe070030479800d3fd07002e409000a3
:1041f4000080fb00c800dd001e4090000080fb0032
:10420400010070000080fa00000006000000fa00bf
:10421400f08d2000104078007f406000e14f500096
:1042240061003a00308e2000104078000004e00065
:104234005f003a00008e200010407800e64f5000e6
:1042440022003a00208e2000104078000080fb00fd
:1042540021022000810f50001100320031022000a1
:10426400810f50001600320011022000810f50000f
:1042740016003a0002c8bf00e14f500012003a0095
:10428400a0622800704688009000200090468800b4
:10429400008d200001ccb300014878000b003700ea
:1042a400806a280070468800d0012000904688006b
:1042b400008d200001ccb3000148780003003700d2
:1042c400000000000100370000000000f08d200015
:1042d4001040780002c6b3008240600000c2b30000
:1042e40080cf500034003a00008e20001040780047
:1042f4000080fb00e30f50001b003200e30f50006e
:1043040005003c00e10f50002d003200e20f500088
:10431400060032002b003700ea0f50000b00320079
:10432400eb0f50001800320026003700c084200034
:10433400704688001000200090468800008d200000
:1043440011ccb300014878001e003700008d200016
:1043540001c8b30001487800f08d2000304090007f
:104364004ce8b70017003700d0842000704688005e
:104374001000200090468800008d200011c8b30072
:10438400014878000f003700008d200001c8b300f9
:1043940001487800f08d2000204090004de8b700df
:1043a400000000000700370000000000050037008f
:1043b4000000000003003700000000000100370087
:1043c400000000000080fa00000006001000fa005f
:1043d400000f78001107980022079800330798000f
:1043e40044079800550798006607980077079800d7
:1043f4003e0090008000eb00010878004e00900021
:104404008000eb00010878001e007800900078001e
:104414001e0190002e0090000000610081007000d9
:104424001e007800010878006e009000fe009000e5
:10443400010878006000b8006011b800a5f1070019
:104444004d09dd004300de0000007100c308de00fa
:10445400000078008000e9005e0090000108780008
:104464004e0090001000780080007800f100b30046
:104474004e009000010878003e0090009000780003
:1044840000c02000810070003e0090000108780008
:104494003e00900010007800800078006100b300b6
:1044a4003e009000010878006c22ef006013800049
:1044b4000040a0000050a100601388006de2a80035
:1044c4006e0090000080fa00000006000c00fa0064
:1044d400889fbe00000f78001107980022079800fb
:1044e4003307980044079800550798001e00900071
:1044f4008000eb00eef007000001be004e009000cb
:10450400de0090008df007000004be003e00900025
:104514008000eb00e6f007000001be000800be00ca
:1045240038f107000004be002e0090008000eb006c
:10453400dff007000001be000800be0022f0070003
:10454400c0f00700800078001e00780001087800a1
:104554004f04be000080fa00000006000000fa00cc
:10456400510c8000f0f72f0000806000500c880090
:10457400710c8000f0f72f0000806000700c880040
:104584000080fa00000006000000fa0015c8bf0011
:104594000004e00009003200510c8000f0f72f0005
:1045a40000806000500c8800710c8000f0f72f0030
:1045b40000806000700c88004900370001408000d2
:1045c40000022000808f50001f003a0050428000fb
:1045d400e10f500009003a00510c8000f0f72f0061
:1045e40000806000500c8800710c800000082000de
:1045f40001007000700c88003500370051428000c3
:10460400b0042000808f500009003a00510c800053
:10461400f0f72f0000806000500c8800710c8000bf
:10462400f0f72f0000806000700c8800280037002d
:104634005142800060092000808f50002100360024
:104644004a28ef002200370050428000e10f50005a
:1046540009003a00510c8000f0f72f000080600040
:10466400500c8800710c80000008200001007000cc
:10467400700c88001600370051428000200320008f
:10468400808f500009003a00510c8000f0f72f0091
:1046940000806000500c8800710c8000f0f72f003f
:1046a40000806000700c88000900370051428000cf
:1046b400603b2000808f5000040036004a28ef0041
:1046c4000300370000000000010037000000000074
:1046d400504280000000e8005042880000000000c2
:1046e4000080fa00000006000000fa0026292000dd
:1046f40005292000e4282000c3282000020120000e
:10470400f1032000c03d2000030007003042880070
:104714000080fa00000006000e00fa00000f780086
:10472400110798002207980033079800440798005f
:1047340055079800660798003e0090008000eb0043
:10474400010878004e0090008000eb00010878001a
:104754001e007800900078001e0190002e0090004a
:1047640000006100810070001e00780001087800dc
:104774006e0090008000eb00010878005e0090005d
:1047840041062000010878004e00900010007800d7
:1047940080007800f101b3004e0090000108780019
:1047a4003e0090009000780000c02100810070005d
:1047b4003e009000010878003e0090001000780050
:1047c400800078006100b3003e009000010878008a
:1047d4006e0090000080fa00000006000200fa005b
:1047e400004f7800304280009e80fb000108780072
:1047f4000080fa00000006000000fa003042800049
:1048040010007800004078000080fa0000000600e4
:104814000000fa0037c0200046272000252720008a
:1048240004272000e3262000d2002000f10320000a
:10483400803d2000e5fe0700d041880037c02000fd
:10484400e6272000c5272000a42720008327200076
:1048540002e0200001f02300803d2000dbfe070081
:10486400e04188000080fa00000006000800fa0019
:10487400008fbe0022079800330798001e01be0077
:1048840000002000413324004eef0700d641800091
:104894000002be00a3d7200062542000410b200078
:1048a4000600780009ff0700e04180002e02900016
:1048b400be02900023e42000224e2000410b200081
:1048c40002ff07000080fa00000006000400fa005e
:1048d400008fbe001e01be000000200041332400f2
:1048e40038ef0700d64180000002be00a3d72000a5
:1048f40062542000410b200006007800f3fe0700fc
:104904000080fa00000006000400fa00008fbe00d8
:10491400e04180001e02be0023e42000224e20005d
:10492400410b2000e9fe07000080fa0000000600a9
:020000040000fa
:104934003a08000004000000800000003e08000067
:10494400040000008000000046080000020000008f
:104954008000000048080000020000008000000001
:104964004a08000002000000800000004e08000019
:104974008000000080000000260800000a000000fb
:1049840080000000420800000400000082000000d3
:1049940098e2000000000000ce08000022000000a1
:1049a40080000000000800002600000080000000d5
:1049b400000a000020000000800000004c080000f5
:1049c4000200000080000000f00800001000000059
:1049d40080000000300800000a0000008000000091
:0449e40082258000a8
:020000040000fa
:1049e8000000fa006a22ef006a62a9006be2a800e0
:1049f80000012000404288000080fa000000060004
:104a08000400fa00100798006022ef001e009000d2
:104a1800e10f50000b0032001e0090008000e900fa
:104a2800404280000088b90000007800000f78003c
:104a380000000000001380009e0f5000fdff3900a9
:104a480001003700000000000080fa0000000600a6
:104a58000200fa00000f780002003700803e2000b4
:104a6800e7ff07001e0fe9001e0078000000e000c5
:104a7800faff3a000080fa00000006000200fa007f
:104a8800000f78001e007800e10f500002003a0085
:104a98006bfa070001003700000000000080fa00f0
:104aa800000006003600f800809fbe00829fbe000e
:104ab800849fbe00869fbe003200f8003400f800d4
:104ac80010002000a001880000202000900188002c
:104ad8000000fa004af107000080fa003400f900eb
:104ae8003200f9004f03be004f02be004f01be0066
:0c4af8004f00be003600f9000040060030
:020000040000fa
:044b040000000000ad
:020000040000fa
:020000040002f8
:04aff0003f460000d8
:020000040000fa
:020000040002f8
:04aff400ffe7000073
:020000040000fa
:020000040002f8
:04aff8003fb900005d
:020000040000fa
:020000040002f8
:04affc003f3f0000d3
:00000001FF
